:020000040000FA
:0400000027EF00F0F6
:100008004F82FACF0DF0FBCF0EF0D9CF0FF0DACF39
:1000180010F0F2AA12EF00F014EF00F01DEF00F05C
:10002800F2A419EF00F01BEF00F01DEF00F0C6EC92
:1000380013F010C0DAFF0FC0D9FF0EC0FBFF0DC0D0
:10004800FAFF4F921100ECEF11F0000E0001BF6FA4
:10005800000EC06F000EC16F000EC26F86EC14F068
:100068008A88000E126E000E116E17EC15F0F294CD
:10007800F2A441EF00F043EF00F03CEF00F05C0E1B
:10008800116E180E126E1CEC15F0F28EF28CEE0E3C
:1000980000019D6FFE0E9E6F72EC14F0270E00019A
:1000A8009D6FFF0E9E6F72EC14F05B0E00019D6F4A
:1000B800FD0E9E6F72EC14F0E70E00019D6FFF0EAF
:1000C8009E6F72EC14F0FCEC14F00009D8B46FEFDA
:1000D80000F071EF00F067EF00F05DEC14F0000144
:1000E800BC6FA6EF05F0300E9D6FFB0E9E6F72EC95
:1000F80014F0020E00019D6FFF0E9E6F72EC14F05B
:10010800EC0E00019D6FFF0E9E6FC1C09FF0C2C034
:10011800A0F0A16BA26B72EC14F0FD0E00019D6FB4
:10012800FF0E9E6F72EC14F0EC0E00019D6FFF0E37
:100138009E6FFF0EBF159F6FFF0EC015A06F000EBC
:10014800C115A16F000EC215A26F72EC14F0880ED3
:1001580000019D6FFF0E9E6F72EC14F0320E0001CD
:100168009D6FFB0E9E6F72EC14F09A0E00019D6F4E
:10017800FF0E9E6F72EC14F0D50E00019D6FFF0EFE
:100188009E6F72EC14F0C50E00019D6FFE0E9E6FFF
:1001980072EC14F06B0E00019D6FFE0E9E6F72ECF8
:1001A80014F0320E00019D6FFB0E9E6F72EC14F07E
:1001B8003B0E00019D6FFE0E9E6F72EC14F0320E26
:1001C80000019D6FFB0E9E6F72EC14F0D00E0001C3
:1001D8009D6FFC0E9E6F72EC14F0510E00019D6F26
:1001E800FC0E9E6F020EA06F000E9F6F72EC14F053
:1001F800F90E00019D6FFA0E9E6F72EC14F0320E2C
:1002080000019D6FFB0E9E6F72EC14F03B0E000117
:100218009D6FFD0E9E6F72EC14F0320E00019D6F03
:10022800FB0E9E6F72EC14F0660E00019D6FFB0EC4
:100238009E6F72EC14F0A60E00019D6FFC0E9E6F6F
:10024800F5C09FF0F6C0A0F072EC14F0F50E0001B6
:100258009D6FFB0E9E6F72EC14F0320E00019D6FC5
:10026800FB0E9E6F72EC14F067EF00F0CD0E9D6FE1
:10027800FF0E9E6F72EC14F067EF00F0000EBE6F79
:10028800000EBD6FF30E9D6FFF0E9E6F72EC14F0A3
:100298000001BD4BBE2BBE5109E1280EBD5DD8A0A3
:1002A80058EF01F05AEF01F046EF01F0FF0067EF59
:1002B80000F0000EBE6F000EBD6FF30E9D6FFF0EB7
:1002C8009E6F72EC14F00001BD4BBE2BBE5109E1CC
:1002D800280EBD5DD8A073EF01F075EF01F061EF56
:1002E80001F067EF00F07C0E9D6FFC0E9E6F72ECC4
:1002F80014F0B40E00019D6FFD0E9E6F72EC14F0A9
:100308003CEC15F0000E6BEC10F0FCEC14F000095E
:10031800D8B491EF01F093EF01F089EF01F05DECB3
:1003280014F0010E95EC0EF067EF00F0610EBC19A9
:10033800D8A4A1EF01F0A3EF01F0B3EF01F0000E94
:10034800BF5F020EC05B000EC15B000EC25BB70E42
:100358009D6FFF0E9E6F72EC14F0C1EF01F0000E5E
:10036800BF27020EC023000EC123000EC223C20EF7
:100378009D6FFF0E9E6F72EC14F0020E00019D6FD0
:10038800FF0E9E6F72EC14F0EC0E00019D6FFF0ED5
:100398009E6FC1C09FF0C2C0A0F0A16BA26B72ECAF
:1003A80014F0FD0E00019D6FFF0E9E6F72EC14F0AD
:1003B800EC0E00019D6FFF0E9E6FFF0EBF159F6F25
:1003C800FF0EC015A06F000EC115A16F000EC2155B
:1003D800A26F72EC14F0880E00019D6FFF0E9E6FE5
:1003E80072EC14F067EF00F0BFC012F0C0C013F059
:1003F800C1C014F0C2C015F0F70E166E040E176EC9
:10040800C1EC10F07C0E00019D6FFF0E9E6F72EC28
:1004180014F05B0E00019D6FFF0E9E6F72EC14F0DE
:10042800EC0E00019D6FFF0E9E6FC1C09FF0C2C011
:10043800A0F0A16BA26B72EC14F0FD0E00019D6F91
:10044800FF0E9E6F72EC14F0EC0E00019D6FFF0E14
:100458009E6FFF0EBF159F6FFF0EC015A06F000E99
:10046800C115A16F000EC215A26F72EC14F0880EB0
:1004780000019D6FFF0E9E6F72EC14F0F70E0001E5
:10048800A76F040EA86F38EC0BF067EF00F0000EB2
:10049800B76F000EBB6F000EBA6FE6EF02F0000EEA
:1004A8000001BE6F000EBD6F550EBA25F66EF90E2F
:1004B800BB21F76EF86A000EF822F70EBD25D96E3B
:1004C800020EBE21DA6E0800F5CFDFFF1A0EBA1948
:1004D800BB11D8A472EF02F074EF02F07AEF02F0C9
:1004E800000EBB6F000EBA6F7CEF02F0BA4BBB2B4D
:1004F800BD4BBE2B020EBE5DD8A085EF02F087EF84
:1005080002F058EF02F0BFC012F0C0C013F0C1C033
:1005180014F0C2C015F0F70E166E020E176EA5EC99
:1005280011F056EC13F00001B66FB629D8B49FEF5E
:1005380002F0A1EF02F095EF02F08B0E9D6FFF0E17
:100548009E6F72EC14F05B0E00019D6FFF0E9E6FA4
:1005580072EC14F0EC0E00019D6FFF0E9E6FC1C08F
:100568009FF0C2C0A0F0A16BA26B72EC14F0FD0E5C
:1005780000019D6FFF0E9E6F72EC14F0EC0E0001EF
:100588009D6FFF0E9E6FFF0EBF159F6FFF0EC0156C
:10059800A06F000EC115A16F000EC215A26F72ECFC
:1005A80014F0880E00019D6FFF0E9E6F72EC14F020
:1005B800000E0001BF27020EC023000EC123000E4B
:1005C800C223B72BFCEC14F00009D8B4EEEF02F00C
:1005D800F0EF02F053EF02F05DEC14F0C70E0001EB
:1005E8009D6FFB0E9E6FB7C09FF0A06B72EC14F06E
:1005F80067EF00F0A00EF527000EF62367EF00F076
:10060800E10EF55D010EF659D8B00DEF03F00FEFCE
:1006180003F015EF03F0010EF66F400EF56F67EF6C
:1006280000F0A00EF55F000EF65B67EF00F0730EAA
:100638009D6FF90E9E6F72EC14F0FCEC14F000093B
:10064800D8B429EF03F02BEF03F021EF03F05DECB2
:1006580014F0010E4C6EDA0E00019D6FFE0E9E6FB7
:1006680072EC14F00BEF04F00001D451D8B43FEF52
:1006780003F041EF03F0A3EF03F0BFC012F0C0C0D6
:1006880013F0C1C014F0C2C015F0F70E166E020EBA
:10069800176EA5EC11F056EC13F00001B66FB629F1
:1006A800D8B459EF03F05BEF03F04FEF03F08B0E74
:1006B8009D6FFF0E9E6F72EC14F05B0E00019D6F34
:1006C800FF0E9E6F72EC14F0EC0E00019D6FFF0E92
:1006D8009E6FC1C09FF0C2C0A0F0A16BA26B72EC6C
:1006E80014F0FD0E00019D6FFF0E9E6F72EC14F06A
:1006F800EC0E00019D6FFF0E9E6FFF0EBF159F6FE2
:10070800FF0EC015A06F000EC115A16F000EC21517
:10071800A26F72EC14F0880E00019D6FFF0E9E6FA1
:1007280072EC14F0000E0001BF27020EC023000E69
:10073800C123000EC223000ED46F0BEF04F0D35177
:10074800D8B4A9EF03F0ABEF03F00BEF04F0BFC090
:1007580012F0C0C013F0C1C014F0C2C015F0F70EFB
:10076800166E000E176EA5EC11F056EC13F0000192
:10077800B66FB629D8B4C3EF03F0C5EF03F0B9EFED
:1007880003F08B0E9D6FFF0E9E6F72EC14F05B0EE4
:1007980000019D6FFF0E9E6F72EC14F0EC0E0001CD
:1007A8009D6FFF0E9E6FC1C09FF0C2C0A0F0A16BED
:1007B800A26B72EC14F0FD0E00019D6FFF0E9E6F90
:1007C80072EC14F0EC0E00019D6FFF0E9E6FFF0E91
:1007D800BF159F6FFF0EC015A06F000EC115A16F4A
:1007E800000EC215A26F72EC14F0880E00019D6F06
:1007F800FF0E9E6F72EC14F0000E0001BF27020E70
:10080800C023000EC123000EC223000ED36FFCECE0
:1008180014F00009D8B413EF04F015EF04F038EF22
:1008280003F05DEC14F0000E0001D06F4A0E9D6FCE
:10083800FF0E9E6F72EC14F067EF00F0000EB86FB9
:10084800C00E9D6FFA0E9E6F72EC14F0080E000138
:100858009D6FFA0E9E6F72EC14F0880E00019D6F6A
:10086800FF0E9E6F72EC14F0860E00019D6FFA0E5B
:100878009E6F72EC14F0970E00019D6FFD0E9E6F37
:1008880072EC14F0150E00019D6FFF0E9E6F72EC56
:1008980014F0230E00019D6FFC0E9E6F72EC14F095
:1008A800C10E00019D6FF90E9E6F72EC14F06C0E74
:1008B80000019D6FFF0E9E6F72EC14F0220E000176
:1008C8009D6FFE0E9E6F72EC14F05DEC14F0FCEC64
:1008D80014F00009D8B473EF04F075EF04F06BEF6F
:1008E80004F05DEC14F0AAEF04F0BFC012F0C0C031
:1008F80013F0C1C014F0C2C015F0F70E166E020E48
:10090800176EC1EC10F0000E0001BE6F000EBD6F37
:10091800E20E9D6FFF0E9E6FF70EBD25D96E020E7B
:10092800BE21DA6EDF50B16FB1519F6FA06B72ECD0
:1009380014F00001BD4BBE2B020EBE5DD8A0A7EF80
:1009480004F0A9EF04F08CEF04F0B82BFCEC14F0E1
:100958000009D8B4B2EF04F0B4EF04F079EF04F072
:10096800180E00019D6FFD0E9E6FB8C09FF0A06B22
:10097800000EA26F040EA16F72EC14F0980E000125
:100988009D6FFB0E9E6F72EC14F0880E00019D6F38
:10099800FF0E9E6F72EC14F0860E00019D6FFA0E2A
:1009A8009E6F72EC14F0970E00019D6FFD0E9E6F06
:1009B80072EC14F0150E00019D6FFF0E9E6F72EC25
:1009C80014F0530E00019D6FFE0E9E6F72EC14F032
:1009D8006C0E00019D6FFF0E9E6F72EC14F067EFB6
:1009E80000F0000EB96F000EBF6F000EC06F000E52
:1009F800C16F000EC26F4C0E9D6FFA0E9E6F72ECA7
:100A080014F0FCEC14F00009D8B40DEF05F00FEF6A
:100A180005F005EF05F05DEC14F0000E126E000E07
:100A2800136E000E146E000E156EF70E166E000E85
:100A3800176EC1EC10F0010E4B6E000E0001BF27BF
:100A4800020EC023000EC123000EC223B92B010ED3
:100A5800D26F86EF05F0A90E9D6FFF0E9E6F72ECA8
:100A680014F00001D105D8A43CEF05F03EEF05F0E5
:100A78005EEF05F0AD0E9D6FFF0E9E6F72EC14F0E9
:100A8800BFC012F0C0C013F0C1C014F0C2C015F04E
:100A9800F70E166E000E176EC1EC10F0000E000176
:100AA800BF27020EC023000EC123000EC223000E72
:100AB800D16FB92BD205D8A464EF05F066EF05F025
:100AC80086EF05F0AD0E9D6FFF0E9E6F72EC14F071
:100AD800BFC012F0C0C013F0C1C014F0C2C015F0FE
:100AE800F70E166E020E176EC1EC10F0000E000124
:100AF800BF27020EC023000EC123000EC223000E22
:100B0800D26FB92BB951B45D000EB559D8B08FEF7B
:100B180005F091EF05F02FEF05F0000E126E000EB4
:100B2800116E17EC14F0000E4B6E67EF00F0390EE3
:100B38009D6FFF0E9E6FBCC09FF0A06B72EC14F00F
:100B480067EF00F0BC51B16FB26BB251000AD8B474
:100B5800B0EF05F09BEF05F0B1512B0AD8B4FEEFCA
:100B680002F0060AD8B404EF03F0120AD8B477EFFB
:100B780000F07E0AD8B49AEF01F0110AD8B4F5EF64
:100B880004F0070AD8B41BEF03F00D0AD8B442EFFB
:100B980001F03B0AD8B49AEF01F0080AD8B477EF0D
:100BA80001F0050AD8B44BEF02F0030AD8B43AEFC3
:100BB80001F01D0AD8B4F8EF01F0010AD8B422EF09
:100BC80004F0090AD8B45DEF01F09BEF05F027EFB8
:100BD80000F03BC0D9FF3CC0DAFFDECFF6FFDDCF27
:100BE800F7FFF86A0800F550250AD8A4FEEF05F0CB
:100BF80000EF06F03DEF08F03BC0D9FF3CC0DAFF3C
:100C0800DE2A000EDD22000E406E000E3F6E3FC051
:100C180043F040C044F041684268000E0001916F03
:100C2800000E906F5FEF06F043803BC0D9FF3CC0D9
:100C3800DAFFDE2A000EDD225FEF06F0438219EFAD
:100C480006F0438419EF06F0438619EF06F043884F
:100C580019EF06F0000E916F010E906F5FEF06F02E
:100C68003BC0D9FF3CC0DAFFDECFF6FFDDCFF7FF90
:100C7800F86A0800F5507C6F7D6B7D51000AD8B486
:100C880048EF06F02EEF06F07C51200AD8B428EF82
:100C980006F0030AD8B42BEF06F0080AD8B425EFFB
:100CA80006F0060AD8B418EF06F01D0AD8B422EFE9
:100CB80006F02EEF06F090519111D8B466EF06F0C9
:100CC80068EF06F034EF06F043A06DEF06F06FEF23
:100CD80006F070EF06F043923BC0D9FF3CC0DAFF44
:100CE800DECFF6FFDDCFF7FFF86A0800F5502A0AD5
:100CF800D8A481EF06F083EF06F0ACEF06F03BC016
:100D0800D9FF3CC0DAFFDE2A000EDD223DC0D9FF44
:100D18003EC0DAFFDFCF7CF0020EDE26DFCF7DF0AB
:100D2800000EDD227CC0D9FF7DC0DAFFDECF3FF0A8
:100D3800DDCF40F040BEA5EF06F0A3EF06F0F1EFDF
:100D480006F043803F6C401ED8B0402AF1EF06F011
:100D58003BC0D9FF3CC0DAFFDECF18F0DDCF19F079
:100D680004EC0DF018C03FF019C040F0C3EF06F0D6
:100D78003BC0D9FF3CC0DAFFDE2A000EDD22D00ED0
:100D880000017C6FFF0E7D6F3BC0D9FF3CC0DAFFCE
:100D9800DECFF6FFDDCFF7FFF86A0800F5507E6F6B
:100DA8007F6B7C517E277D517F237F510AE10A0E9C
:100DB8007E5DD8A0E2EF06F0E5EF06F0010EE6EF63
:100DC80006F0000E926F936B92519311D8A4EFEF37
:100DD80006F0F1EF06F0BCEF06F03BC0D9FF3CC0CF
:100DE800DAFFDECFF6FFDDCFF7FFF86A0800F5502F
:100DF800630AD8A402EF07F004EF07F02BEF07F01F
:100E08003BC0D9FF3CC0DAFFDE2A000EDD223DC020
:100E1800D9FF3EC0DAFFDFCF7CF0020EDE26DFCF3F
:100E28007DF0000EDD227CC0D9FF7DC0DAFFDF50E7
:100E3800946F39C02EF03AC02FF094C030F080EC97
:100E480012F02EC039F02FC03AF059EF08F03BC02D
:100E5800D9FF3CC0DAFFDECFF6FFDDCFF7FFF86A37
:100E68000800F550640AD8B43CEF07F03EEF07F0ED
:100E780051EF07F03BC0D9FF3CC0DAFFDECFF6FFE9
:100E8800DDCFF7FFF86A0800F550690AD8A44FEFDC
:100E980007F051EF07F091EF07F03BC0D9FF3CC0D6
:100EA800DAFFDE2A000EDD223DC0D9FF3EC0DAFFA0
:100EB800DFCF7CF0020EDE26DFCF7DF0000EDD22D4
:100EC8007CC0D9FF7DC0DAFFDECF80F0DDCF81F0B6
:100ED800000E81BFFF0E826F836F846F856F866FF0
:100EE800876F39C02EF03AC02FF080C030F081C033
:100EF80031F082C032F083C033F084C034F085C052
:100F080035F086C036F087C037F05AEC08F02EC0AE
:100F180039F02FC03AF059EF08F03BC0D9FF3CC078
:100F2800DAFFDECFF6FFDDCFF7FFF86A0800F550ED
:100F3800780AD8B4A2EF07F0A4EF07F0B7EF07F0EC
:100F48003BC0D9FF3CC0DAFFDECFF6FFDDCFF7FFAD
:100F5800F86A0800F550580AD8A4B5EF07F0B7EFBB
:100F680007F006EF08F03BC0D9FF3CC0DAFFDECF40
:100F7800F6FFDDCFF7FFF86A0800F5CF94F03BC025
:100F8800D9FF3CC0DAFFDE2A000EDD223DC0D9FFC2
:100F98003EC0DAFFDFCF7CF0020EDE26DFCF7DF029
:100FA800000EDD227CC0D9FF7DC0DAFFDECF7EF0E7
:100FB800DDCF7FF07EC088F07FC089F08A6B8B6BB5
:100FC8008C6B8D6B8E6B8F6B39C02EF03AC02FF007
:100FD80088C030F089C031F08AC032F08BC033F05D
:100FE8008CC034F08DC035F08EC036F08FC037F02D
:100FF80094C038F0CBEC09F02EC039F02FC03AF08D
:1010080059EF08F03BC0D9FF3CC0DAFFDECFF6FF4E
:10101800DDCFF7FFF86A0800F550250AD8A417EFC6
:1010280008F019EF08F030EF08F03BC0D9FF3CC0DA
:10103800DAFFDE2A000EDD22000E146E250E136E76
:1010480039C015F03AC016F05AEC11F0000E3A6E9D
:10105800010E396E59EF08F03BC0D9FF3CC0DAFFEA
:10106800DE2A000EDD22000E3A6E000E396E59EFB0
:1010780008F03BC0D9FF3CC0DAFFDECFF6FFDDCF7A
:10108800F7FFF86A0800F550136E146A39C015F0B6
:101098003AC016F05AEC11F03BC0D9FF3CC0DAFF59
:1010A800DE2A000EDD222AEF08F0120030C070F0B0
:1010B80031C071F032C072F033C073F034C074F0D4
:1010C80035C075F036C076F037C077F0000177BFCD
:1010D80070EF08F073EF08F0010E74EF08F0000EDF
:1010E8006E6F6F6B6E516F11D8B47DEF08F07FEFA4
:1010F80008F08FEF08F0771F761F751F741F731F96
:10110800721F711F706D000E712372237323742375
:1011180075237623772342BE94EF08F096EF08F004
:1011280097EF08F0439242BEA4EF08F0425006E160
:101138004104D8B0A2EF08F0A4EF08F0AAEF08F035
:10114800000E6B6F010E6A6FAEEF08F041C06AF0D7
:1011580042C06BF03FC06CF040C06DF06E516F1133
:10116800D8A4B9EF08F0BBEF08F0C2EF08F043A429
:10117800C0EF08F0C2EF08F0C5EF08F06C07D8A080
:101188006D07000E796F1F0E786F000EF46F4AEF2F
:1011980009F07807D8A07907D50E7825D96E000E02
:1011A8007921DA6E70C011F071C012F072C013F0BC
:1011B80073C014F074C015F075C016F076C017F03F
:1011C80077C018F00A0E196E000E1A6E000E1B6E0C
:1011D800000E1C6E000E1D6E000E1E6E000E1F6EA1
:1011E800000E206E58EC0FF011C060F012C061F0D4
:1011F80013C062F014C063F015C064F016C065F047
:1012080017C066F018C067F060C023F062C024F011
:1012180018EC13F02350300FDF6E00016A07D8A0D6
:101228006B076C07D8A06D0770C011F071C012F081
:1012380072C013F073C014F074C015F075C016F0C6
:1012480076C017F077C018F00A0E196E000E1A6EE5
:10125800000E1B6E000E1C6E000E1D6E000E1E6E24
:10126800000E1F6E000E206ED1EC0DF011C070F054
:1012780012C071F013C072F014C073F015C074F08E
:1012880016C075F017C076F018C077F0000179BF66
:1012980056EF09F0795108E17805D8A056EF09F022
:1012A80058EF09F088EF09F070517111721173113C
:1012B8007411751176117711D8A465EF09F067EFED
:1012C80009F0CDEF08F06BBF74EF09F06B5106E140
:1012D8006A05D8B072EF09F074EF09F0CDEF08F0A5
:1012E8006DBF7FEF09F06D5108E16C05D8A07FEF65
:1012F80009F081EF09F088EF09F043B286EF09F0B1
:1013080088EF09F0CDEF08F06E516F11D8A48FEF78
:1013180009F091EF09F098EF09F043A496EF09F06E
:1013280098EF09F0B6EF09F07807D8A079076E5161
:101338006F11D8A4A2EF09F0A4EF09F0AAEF09F001
:10134800000E696F2B0E686FAEEF09F0000E696F23
:101358002D0E686FD50E7825D96E000E7921DA6EBC
:1013680068C0DFFF2EC023F02FC024F0D50E7825EB
:10137800256E000E7921266E6CC027F06DC028F00E
:101388000AEC10F023C02EF024C02FF0120042BE49
:10139800D0EF09F0D2EF09F0D3EF09F0439242BE43
:1013A800E0EF09F0425006E14104D8B0DEEF09F061
:1013B800E0EF09F0E7EF09F0000E00016D6F010E94
:1013C8006C6FEBEF09F041C06CF042C06DF03FC0AC
:1013D8006EF040C06FF043A8F4EF09F0F6EF09F0A3
:1013E800FBEF09F00001FE0E6E27FF0E6F2330C0E1
:1013F80070F031C071F032C072F033C073F034C095
:1014080074F035C075F036C076F037C077F0000E4E
:101418000001796F1F0E786F000EF46FC8EF0AF0A5
:101428007807D8A079070F0E70157A6F7B6B7BBF92
:1014380027EF0AF07B5109E10A0E7A5DD8A027EF61
:101448000AF029EF0AF031EF0AF0570E7A257A6F81
:10145800000E7B217B6F37EF0AF0300E7A257A6F0A
:10146800000E7B217B6FBF0E606FFF0E616F3850DF
:10147800626F636B605162276151632363510AE1B4
:101488001A0E625DD8A04BEF0AF04EEF0AF0010E7B
:101498004FEF0AF0000E686F696B68516911D8B494
:1014A80058EF0AF05AEF0AF08AEF0AF09F0E606FC1
:1014B800FF0E616F200E7A11626F000E7B11636F51
:1014C800605162276151632363510AE11A0E625D1C
:1014D800D8A071EF0AF074EF0AF0010E75EF0AF068
:1014E800000E6A6F6B6B6A516B11D8B47EEF0AF00D
:1014F80080EF0AF08AEF0AF07AC017F07BC018F084
:1015080051EC12F017C07AF018C07BF0D50E00012C
:101518007825D96E000E7921DA6E7AC0DFFF6C0764
:10152800D8A06D076E07D8A06F0770C060F071C0B3
:1015380061F072C062F073C063F074C064F075C08B
:1015480065F076C066F077C067F0050EB5EF0AF073
:10155800D8906733663365336433633362336133FA
:101568006033E82EACEF0AF060C070F061C071F033
:1015780062C072F063C073F064C074F065C075F047
:1015880066C076F067C077F079BFD4EF0AF079517A
:1015980009E1020E785DD8A0D4EF0AF0D6EF0AF080
:1015A80006EF0BF0705171117211731174117511EE
:1015B80076117711D8A4E3EF0AF0E5EF0AF014EFFB
:1015C8000AF06DBFF2EF0AF06D5106E16C05D8B074
:1015D800F0EF0AF0F2EF0AF014EF0AF06FBFFDEF38
:1015E8000AF06F5108E16E05D8A0FDEF0AF0FFEF91
:1015F8000AF006EF0BF043B204EF0BF006EF0BF026
:1016080014EF0AF043A80BEF0BF00DEF0BF023EFEC
:101618000BF07807D8A07907D50E7825D96E000E7B
:101628007921DA6E38C0DFFF7807D8A07907D50EA0
:101638007825D96E000E7921DA6E300EDF6E2EC055
:1016480023F02FC024F0D50E7825256E000E7921C1
:10165800266E6EC027F06FC028F00AEC10F023C089
:101668002EF024C02FF01200F10E00019D6FFF0E26
:101678009E6F72EC14F0000E0001B06F000EAF6F99
:10168800AF51B011D8B44BEF0BF04DEF0BF062EF48
:101698000BF0070EAF15A96F000EB015AA6FA95170
:1016A800AA11D8A45AEF0BF05CEF0BF062EF0BF025
:1016B8006A0E9D6FFF0E9E6F72EC14F00001AF5121
:1016C800B011D8B46AEF0BF06CEF0BF0C5EF0BF06C
:1016D8000F0EAF15A96F000EB015AA6FA951AA1168
:1016E800D8A479EF0BF07BEF0BF0C5EF0BF0690E88
:1016F8009D6FFF0E9E6F72EC14F0F00E0001AF2587
:10170800AB6FFF0EB021AC6FB4EF0BF0AB51A72558
:10171800D96EAC51A821DA6E200EDF6096EF0BF07F
:1017280098EF0BF0A0EF0BF0FB0E9D6FFF0E9E6F76
:1017380072EC14F0B1EF0BF0F50E9D6FFF0E9E6F7B
:10174800AB51A725D96EAC51A821DA6EDF50A96F2D
:10175800A9519F6FA06B72EC14F00001AB4BAC2B3E
:10176800AF51AB5DB051AC59D8A0BDEF0BF0BFEF96
:101778000BF08AEF0BF0880E9D6FFF0E9E6F72ECD8
:1017880014F0DC0E00019D6FFF0E9E6FAF51A72570
:10179800D96EB051A821DA6EDF50A96FA9519F6F99
:1017A800A06B72EC14F00001AF4BB02B020EB05DD1
:1017B800D8A0E1EF0BF0E3EF0BF044EF0BF0680E6D
:1017C8009D6FFF0E9E6F72EC14F0F00E0001AF25B6
:1017D800AD6FFF0EB021AE6F1CEF0CF0AD51A72519
:1017E800D96EAE51A821DA6E200EDF60FEEF0BF045
:1017F80000EF0CF008EF0CF0FB0E9D6FFF0E9E6FD4
:1018080072EC14F019EF0CF0F50E9D6FFF0E9E6F41
:10181800AD51A725D96EAE51A821DA6EDF50A96F58
:10182800A9519F6FA06B72EC14F00001AD4BAE2B69
:10183800AF51AD5DB051AE59D8A025EF0CF027EFF0
:101848000CF0F2EF0BF0880E9D6FFF0E9E6F72EC9E
:1018580014F012004C50D8B434EF0CF036EF0CF002
:101868008DEF0CF04CEF0CF0F70E4924D96E020EF8
:101878004A20DA6EC4CFDFFF61EF0CF0F70E49247F
:10188800D96E000E4A20DA6EC4CFDFFF61EF0CF08C
:101898004E500B6E0C6A0C50000AD8B456EF0CF080
:1018A80061EF0CF00B50000AD8B442EF0CF0010ABB
:1018B800D8B438EF0CF061EF0CF0494A4A2A020E0E
:1018C8004A184910D8A46BEF0CF06DEF0CF08DEFAF
:1018D8000CF04E04D8A473EF0CF075EF0CF07CEF0D
:1018E8000CF0000E4E6E010E0001D46F89EF0CF063
:1018F8004E50D8A482EF0CF084EF0CF089EF0CF076
:10190800010E4E6E010E0001D36F000E4A6E000EDE
:10191800496E4B50D8B493EF0CF095EF0CF0F6EFFE
:101928000CF0B5EF0CF0F70E4724D96E020E4820E4
:10193800DA6EDF500B6E0B50016E026A2FEC14F05A
:10194800CAEF0CF0F70E4724D96E000E4820DA6E65
:10195800DF500B6E0B50016E026A2FEC14F0CAEFC9
:101968000CF04D500B6E0C6A0C50000AD8B4BFEF47
:101978000CF0CAEF0CF00B50000AD8B4A6EF0CF02C
:10198800010AD8B497EF0CF0CAEF0CF0474A482A7E
:10199800020E48184710D8A4D4EF0CF0D6EF0CF07C
:1019A800F6EF0CF04D04D8A4DCEF0CF0DEEF0CF0F1
:1019B800E5EF0CF0000E4D6E010E0001D26FF2EF54
:1019C8000CF04D50D8A4EBEF0CF0EDEF0CF0F2EF6B
:1019D8000CF0010E4D6E010E0001D16F000E486E25
:1019E800000E476EBCEC14F00001F551015C096E65
:1019F800F65102580A6E35EC15F0C282F2941200C4
:101A0800000E266E000E256E000E1F6E000E1E6E56
:101A180010EF0DF0184A192A010E246E18C0F6FFAF
:101A280019C0F7FFF86A0800F550200AD8B41FEF6C
:101A38000DF021EF0DF03FEF0DF0F70E1A6EFF0ECF
:101A48001B6E18C0F6FF19C0F7FFF86A0800F550BA
:101A58001C6E1D6A1A501C261B501D221D5009E1C0
:101A6800050E1C5CD8A03BEF0DF03DEF0DF03FEFED
:101A78000DF0000E246E24C020F0216A20502110A1
:101A8800D8A449EF0DF04BEF0DF00EEF0DF055EF28
:101A98000DF0000E1F6E010E1E6E184A192A8CEFEB
:101AA8000DF018C0F6FF19C0F7FFF86A0800F550E6
:101AB8001A6E1B6A1B50000AD8B465EF0DF08CEF44
:101AC8000DF01A502B0AD8B451EF0DF0060AD8B40D
:101AD8004DEF0DF08CEF0DF025C011F026C012F07F
:101AE800000E146E0A0E136E99EC14F018C0F6FF6F
:101AF80019C0F7FFF86A0800F550115E000E125A77
:101B0800300E1124256E000E1220266E51EF0DF0B6
:101B1800D00E1A6EFF0E1B6E18C0F6FF19C0F7FF25
:101B2800F86A0800F5501C6E1D6A1A501C261B50D6
:101B38001D221D500AE10A0E1C5CD8A0A6EF0DF06C
:101B4800A9EF0DF0010EAAEF0DF0000E226E236A28
:101B580022502310D8A4B3EF0DF0B5EF0DF070EFBD
:101B68000DF01E501F10D8A4BCEF0DF0BEEF0DF005
:101B7800CCEF0DF025C01AF026C01BF01A1E1B1E54
:101B88001A4A1B2A1AC018F01BC019F0D0EF0DF022
:101B980025C018F026C019F01200000E226E20BED3
:101BA800DAEF0DF0D8EF0DF0ECEF0DF0201E1F1E50
:101BB8001E1E1D1E1C1E1B1E1A1E196C000E1A222C
:101BC8001B221C221D221E221F222022010E226EF1
:101BD80018BEF3EF0DF0F1EF0DF005EF0EF0181E43
:101BE800171E161E151E141E131E121E116C000E33
:101BF8001222132214221522162217221822010E4D
:101C0800221A20EE23F0070EDE6AE806FDE21950DC
:101C18001A101B101C101D101E101F102010D8B4F5
:101C280018EF0EF01AEF0EF06CEF0EF0010E216EA9
:101C380028EF0EF0D89019361A361B361C361D368A
:101C48001E361F362036212A20AE2DEF0EF02FEF3C
:101C58000EF01EEF0EF0D8902336243625362636A1
:101C68002736283629362A361950115C1A50125848
:101C78001B5013581C5014581D5015581E501658F8
:101C88001F50175820501858D8A04DEF0EF04FEF9E
:101C98000EF060EF0EF01950115E1A50125A1B50D8
:101CA800135A1C50145A1D50155A1E50165A1F50BC
:101CB800175A2050185A2380D89020321F321E32CB
:101CC8001D321C321B321A321932212E2FEF0EF020
:101CD8002250D8B472EF0EF074EF0EF084EF0EF0CD
:101CE8002A1E291E281E271E261E251E241E236C7A
:101CF800000E2422252226222722282229222A22CF
:101D080023C011F024C012F025C013F026C014F02F
:101D180027C015F028C016F029C017F02AC018F0FF
:101D280012000001AC6F0001AC510EEC11F08A9862
:101D3800FF0ED9EC14F0480ED9EC14F0000ED9ECD3
:101D480014F0000ED9EC14F0010ED9EC14F0AA0E20
:101D5800D9EC14F0870ED9EC14F0FF0ED9EC14F07E
:101D6800FF0ED9EC14F00001AF6F000EAE6F000E3D
:101D7800AD6FF80E9D6FFF0E9E6FFF0ED9EC14F03D
:101D88000001AB6FAB519F6FA06B72EC14F00001B8
:101D9800AD4BAE2BAEBFDAEF0EF0AE5109E1040E3B
:101DA800AD5DD8A0DAEF0EF0DCEF0EF0BDEF0EF06F
:101DB800880E9D6FFF0E9E6F72EC14F08A88B00E2D
:101DC80000019D6FFE0E9E6FAFC09FF0A06B72EC7E
:101DD80014F08A98FF0ED9EC14F0770ED9EC14F0B1
:101DE800000ED9EC14F0000ED9EC14F0000ED9EC6A
:101DF80014F0000ED9EC14F0000ED9EC14F0FF0E1C
:101E0800D9EC14F0FF0ED9EC14F00001AF6F9A0E64
:101E18009D6FFE0E9E6FAFC09FF0A06B72EC14F02A
:101E2800690ED9EC14F0400ED9EC14F0000ED9EC80
:101E380014F0000ED9EC14F0000ED9EC14F0000EDA
:101E4800D9EC14F0FF0ED9EC14F0FF0ED9EC14F015
:101E58000001AF6F8A88830E9D6FFE0E9E6FAFC024
:101E68009FF0A06B72EC14F00001AF05D8B43FEFFF
:101E78000FF041EF0FF0EDEF0EF0AF51D8A447EFA0
:101E88000FF049EF0FF051EF0FF0F50E9D6FFC0EBC
:101E98009E6F72EC14F057EF0FF07A0E9D6FFD0EE7
:101EA8009E6F72EC14F01200000E226E18BE61EFE5
:101EB8000FF05FEF0FF073EF0FF0181E171E161ECE
:101EC800151E141E131E121E116C000E1222132250
:101ED80014221522162217221822010E226E20BE65
:101EE8007AEF0FF078EF0FF08AEF0FF0201E1F1E29
:101EF8001E1E1D1E1C1E1B1E1A1E196C000E1A22E9
:101F08001B221C221D221E221F22202219501A10B9
:101F18001B101C101D101E101F102010D8B497EF96
:101F28000FF099EF0FF0E1EF0FF0010E216EA7EF20
:101F38000FF0D89019361A361B361C361D361E3649
:101F48001F362036212A20AEACEF0FF0AEEF0FF08F
:101F58009DEF0FF01950115C1A5012581B5013586E
:101F68001C5014581D5015581E5016581F501758FD
:101F780020501858D8A0C3EF0FF0C5EF0FF0D5EFD9
:101F88000FF01950115E1A50125A1B50135A1C5058
:101F9800145A1D50155A1E50165A1F50175A2050C1
:101FA800185AD89020321F321E321D321C321B3272
:101FB8001A321932212EAEEF0FF02250D8B4E7EFC3
:101FC8000FF0E9EF0FF0F9EF0FF0181E171E161EAD
:101FD800151E141E131E121E116C000E122213223F
:101FE8001422152216221722182211C011F012C02D
:101FF80012F013C013F014C014F015C015F016C079
:1020080016F017C017F018C018F0120043A00FEF11
:1020180010F011EF10F01BEF10F025C01CF026C0D7
:102028001DF023C01EF024C01FF0D6EC12F028BE0D
:1020380020EF10F022EF10F028EF10F027C02CF05E
:1020480028C02DF02CEF10F0000E2D6E000E2C6E17
:10205800000E2B6E000E2A6E3EEF10F0000E146E6E
:10206800200E136E23C015F024C016F05AEC11F0A0
:102078002A4A2B2A2C502A5C2B50800A296E2D5074
:10208800800A2958D8A04BEF10F04DEF10F032EF2E
:1020980010F043B052EF10F054EF10F05EEF10F074
:1020A80025C01CF026C01DF023C01EF024C01FF060
:1020B800D6EC12F025C011F026C012F0E2EC13F0B5
:1020C8002C501124236E2D501220246E1200126EF3
:1020D8006CBA71EF10F073EF10F0C0EF10F01250FF
:1020E800040D010EF326000EF4226F0EF324F66E93
:1020F800F90EF420F76EF86A000EF8220800F5CF02
:102108006DFF1250040D6F0EF324F66EF90EF420D5
:10211800F76EF86A000EF8220800F5CF6CFF000E83
:102128006B6E1250040D020EF326000EF4226F0E91
:10213800F324F66EF90EF420F76EF86A000EF82212
:102148000800F5CF6EFF1250040D030EF326000EA3
:10215800F4226F0EF324F66EF90EF420F76EF86A87
:10216800000EF8220800F5CF11F01146935011180F
:10217800FD0B1118936E6C8A12008A98FF0ED9EC29
:1021880014F0510ED9EC14F01550D9EC14F0145089
:10219800D9EC14F01350D9EC14F01250D9EC14F017
:1021A800FF0ED9EC14F0FF0ED9EC14F0FF0AD8B4E6
:1021B800E0EF10F0E2EF10F0D7EF10F0FF0ED9ECDF
:1021C80014F0FF0AD8B4EBEF10F0EDEF10F0E2EFE7
:1021D80010F0000E196E000E186E18501624D96EE5
:1021E80019501720DA6EFF0ED9EC14F0DF6E184A7A
:1021F800192A020E195CD8A004EF11F006EF11F0AD
:10220800F1EF10F0FF0ED9EC14F0FF0ED9EC14F03A
:102218008A8812000001A76F000E0001AA6F000E45
:10222800A96FFF0ED9EC14F00001A94BAA2BAABF85
:1022380027EF11F0AA5109E10A0EA95DD8A027EFEE
:1022480011F029EF11F015EF11F08A98FF0ED9EC73
:1022580014F0400ED9EC14F0000ED9EC14F0000E76
:10226800D9EC14F0000ED9EC14F0000ED9EC14F0EF
:10227800950ED9EC14F0FF0ED9EC14F0FF0ED9EC42
:1022880014F00001A86F8A88A705D8A44EEF11F0B2
:1022980050EF11F059EF11F0ED0E9D6FFD0E9E6F8E
:1022A800A8C09FF0A06B72EC14F012001550161025
:1022B800D8B461EF11F063EF11F06CEF11F0155025
:1022C8001610D8A46AEF11F06CEF11F071EF11F04D
:1022D800135030EC15F0A4EF11F020EE04F0155077
:1022E800D9261650DA22DE50DE10D8B47EEF11F06F
:1022F80080EF11F09BEF11F020EE04F01550D92675
:102308001650DA2210EE02F01550E1261650E2229D
:10231800DE50E65CE650800A1B6EDE50800A1B58D1
:10232800D8B099EF11F09BEF11F0A4EF11F020EE67
:1023380002F01550D9261650DA22DE2A000EDD22C8
:1023480012008A98FF0ED9EC14F0580ED9EC14F04C
:102358001550D9EC14F01450D9EC14F01350D9ECF2
:1023680014F01250D9EC14F0FF0ED9EC14F0FF0E53
:10237800D9EC14F0FF0AD8B4C4EF11F0C6EF11F08D
:10238800BBEF11F0FF0ED9EC14F0FF0ED9EC14F0EE
:10239800FF0ED9EC14F0FE0ED9EC14F0000E196EF5
:1023A800000E186E18501624D96E19501720DA6EC0
:1023B800DF50D9EC14F0184A192A020E195CD8A07B
:1023C800E8EF11F0EAEF11F0D6EF11F08A88120069
:1023D8007E0EF66E2A0EF76E000EF86E0900F5CF27
:1023E800F5F00900F5CFF6F07C0EF66E2A0EF76EC2
:1023F800000EF86E0900F5CF4DF00900F5CF4EF04C
:1024080000EEF7F016EE00F0EE6AE550E150FCE160
:10241800E250FAE100EEC3F0320EEE6AE806FDE1A2
:1024280000EE3FF00E0EEE6AE806FDE14F904F9287
:10243800000129EF00F097C09BF098C09CF0000EB7
:102448000001C46F000EC36F3DEF12F095C039F064
:1024580096C03AF09B0E3B6E000E3C6E99C03DF064
:102468009AC03EF0EDEC05F039500001C3273A5010
:10247800C4239BC0F6FF9CC0F7FFF86A0800F5501C
:102488000009D8A44AEF12F04CEF12F02AEF12F02C
:10249800C3C095F0C4C096F012009F0E196EFF0ECF
:1024A8001A6E17C01BF018C01CF019501B261A50C2
:1024B8001C221C500AE11A0E1B5CD8A066EF12F011
:1024C80069EF12F0010E6AEF12F0000E1D6E1E6A1F
:1024D8001D501E10D8B473EF12F075EF12F07BEF99
:1024E80012F05F0E1714176E186A7FEF12F017C0FC
:1024F80017F018C018F012003F504010D8A487EF0A
:1025080012F089EF12F08FEF12F03FC031F040C0A7
:1025180032F095EF12F0FF0E3F24316EFF0E40208F
:10252800326E30C0D5F0000E0001D66F2EC023F0F9
:102538002FC024F0D50E256E000E266E31C027F070
:1025480032C028F00AEC10F023C02EF024C02FF07F
:102558001200010E176E200E11181210D8B4B7EF22
:1025680012F0B9EF12F0D2EF12F0F70E136EFF0E61
:10257800146E11C015F012C016F013501526145021
:102588001622165009E1050E155CD8A0CEEF12F000
:10259800D0EF12F0D2EF12F0000E176E17C011F044
:1025A800126A1200000E226E000E216EE7EF12F082
:1025B80020C013F0146A1EC015F01FC016F05AECA4
:1025C80011F0214A222A21501C24D96E22501D20A4
:1025D800DA6EDF50206E2050D8A4F5EF12F0F7EF36
:1025E80012F0DCEF12F01200080EB86E900EAB6E0F
:1025F800240EAC6E820EAF6E060EB06E000E116E1B
:10260800000E126E26EC15F0000E116E000E126E02
:1026180021EC15F0000E116E000E126E2BEC15F069
:10262800000E0001CF6F120024BE25EF13F02450D6
:1026380006E12304D8B023EF13F025EF13F033EFAE
:1026480013F023C025F024C026F0251E261E254A97
:10265800262A25C023F026C024F037EF13F023C024
:1026680023F024C024F012009F0E136EFF0E146E88
:10267800200E1110156E000E1210166E135015262E
:102688001450162216500AE11A0E155CD8A04FEF06
:1026980013F052EF13F0010E53EF13F0000E116E0A
:1026A800126A12008A980D0ED9EC14F0126E8A88FC
:1026B8001228D8A462EF13F064EF13F067EF13F059
:1026C800FF0E71EF13F0FF0ED9EC14F0FF0ED9ECEA
:1026D80014F0FF0ED9EC14F0125012009F0E136E76
:1026E800FF0E146E11C015F012C016F01350152607
:1026F8001450162216500AE11A0E155CD8A087EF5E
:1027080013F08AEF13F0010E8BEF13F0000E116E29
:10271800126A1200BF0E136EFF0E146E11C015F070
:1027280012C016F0135015261450162216500AE13E
:102738001A0E155CD8A0A3EF13F0A6EF13F0010E44
:10274800A7EF13F0000E116E126A1200D00E136E6E
:10275800FF0E146E11C015F012C016F01350152696
:102768001450162216500AE10A0E155CD8A0BFEFC5
:1027780013F0C2EF13F0010EC3EF13F0000E116E49
:10278800126A1200F2944650D76E45C0D6FF000177
:10279800CD51CE11D8B4D3EF13F0D5EF13F0E1EF4C
:1027A80013F002D8E1EF13F00500FA6ECD51FD6E7B
:1027B800CE51FE6EFF6AFA501200120011C013F0DB
:1027C80012C014F0EAEF13F0114A122A11C0D9FF0F
:1027D80012C0DAFFDF50D8A4F4EF13F0F6EF13F0CD
:1027E800E8EF13F01350115C116E14501258126E6A
:1027F8001200D59CD768C10ED66ED650D7CF13F02D
:10280800146A13C014F0136A1310456E1450466E00
:10281800F294F28A800E116E2A0E126E1CEC15F0DC
:10282800970ED56E120011C013F012C014F0D89094
:1028380014321332D890143213321350BE6E11C0B2
:1028480013F0030E1316133AF00E1316BD50CF0BE8
:102858001310BD6E120001C003F002C004F0D8903E
:1028680004320332D890043203320350BE6E01C0E2
:1028780003F0030E0316033AF00E0316BD50CF0BF8
:102888000310BD6E1200000E896E000E8A6E000ED7
:102898008B6E9268E50E936EB80E946E3C0E0F0127
:1028A8003A6F310E396F2F0E386F000E616EF18E50
:1028B80012009EAA62EF14F064EF14F05DEF14F0BA
:1028C800000E0001CF6FABA26CEF14F06EEF14F0A6
:1028D80070EF14F0AB98AB88AE5012009F0E000159
:1028E800A56F000EA66F000E956F000E966F9DC027
:1028F80097F09EC098F0A50E996F000E9A6F1FEC86
:1029080012F012003AEC15F006EC15F047EC14F052
:10291800CBEC14F0E6EC14F0ACEC14F00FEC15F082
:10292800FDEC13F0F8EC12F0120011501302F3CF83
:1029380015F0F4CF16F011501402F3501626125069
:102948001302F350162615C011F016C012F012002B
:102958003C0EBD6E000EB66E800EB76E010EB96EDF
:10296800000EBF6E1F0EBE6EFC0E0F01491712003F
:10297800D6CF07F0D7CF08F00850036E0750056E82
:1029880003C006F005C001F006C002F01200700E88
:10299800D36E040ED26E400E9B6ED2AED6EF14F0FC
:1029A800D8EF14F0D1EF14F01200116E11C06FFFC0
:1029B800A4AEE1EF14F0E3EF14F0DCEF14F0A49E02
:1029C8006F501200110EC26E000EC16E260EC06E40
:1029D800000EC36E000EC46E1200116E9EA8F7EFB3
:1029E80014F0F9EF14F0F2EF14F011C0ADFF12007B
:1029F8009EBA01EF15F004EF15F0010E05EF15F082
:102A0800000E1200400E6D6E010E6C6E010E6E6EA1
:102A180093926C9A12003F0EBB6E000EBC6E9E9293
:102A2800050EBA6E12001250D76E11C0D6FF1200F2
:102A380011C0CDF012C0CEF0120011C0C9F012C002
:102A4800CAF0120011C0CBF012C0CCF0120011C0B5
:102A5800C7F012C0C8F01200126E1250F1EC14F058
:102A680012000A50D76E09C0D6FF1200D09E12007D
:0A2A78006C9A1200010140061200E2
:10F9540000809FBBD5E9F8FFFFF8E9D5BB9F806124
:10F96400452B1708010108172B4561014001005080
:10F974007265737320616E79206B657920746F20D2
:10F984007374617274207265636F7264696E672048
:10F99400617564696F20616E642070726573732091
:10F9A400616E79206B657920746F2073746F702099
:10F9B4007265636F7264696E672E0D0A004C6F671F
:10F9C4002066696C65206E616D653A2042726F77BE
:10F9D400736520616E642070726F7669646520615E
:10F9E400202E63737620657874656E73696F6E205C
:10F9F400746F20796F75722066696C65206E616D15
:10FA0400650D0A00546F2073706F6F6C20746572FB
:10FA14006D696E616C20636F6E74656E74732069BA
:10FA24006E746F20612066696C6520666F6C6C6F04
:10FA34007720746865736520696E73747275637476
:10FA4400696F6E733A0D0A00507265737320616EAC
:10FA540079206B657920746F207265706C617920F0
:10FA640074686520617564696F2073746F7265646E
:10FA7400206F6E2074686520534420636172640DA6
:10FA84000A005269676874206D6F75736520636C32
:10FA940069636B206F6E2074686520757070657281
:10FAA400206C656674206F662074686520507554F8
:10FAB40054592077696E646F770D0A00596F752069
:10FAC4006D6179207465726D696E617465207370FF
:10FAD4006F6F6C696E6720617420616E7974696DF3
:10FAE4006520776974682061206B6579707265732D
:10FAF400732E0D0A006C3A207772697465206120B8
:10FB0400706572666563742032362076616C756543
:10FB14002073696E65207761766520746F20746840
:10FB24006520534420436172640D0A000D0A2D2D93
:10FB34002D2D2D2D2D2D2D2D2D2D2D2D2D2D2D2DF1
:10FB44002D2D2D2D2D2D2D2D2D2D2D2D2D2D2D2DE1
:10FB54002D2D2D2D2D2D2D2D2D2D2D2D2D2D2D0DF1
:10FB64000A002B2F2D3A20496E6372656173652F4D
:10FB74004465637265617365207468652073616DA3
:10FB8400706C652072617465206279203130207553
:10FB9400730D0A00546F20636C6F7365207468657D
:10FBA4002066696C6520666F6C6C6F77207468657D
:10FBB400736520696E737472756374696F6E733ADA
:10FBC4000D0A0054686572652077657265202564A6
:10FBD40020626C6F636B73207772697474656E2036
:10FBE400746F2074686520534420636172640D0A45
:10FBF40000503A20506C61792066726F6D20534436
:10FC0400206361726420746F2050574D202D3E2074
:10FC14004C5046202D3E20417564696F0D0A0053F7
:10FC2400656C6563743A0953657373696F6E206C10
:10FC34006F6767696E673A20416C6C2073657373F4
:10FC4400696F6E206F75747075740D0A00723A20B6
:10FC540072656164206120626C6F636B206F662043
:10FC640025642062797465732066726F6D20534435
:10FC740020636172640D0A004D616B6520737572B7
:10FC84006520534420636172642069732070726F2D
:10FC94007065726C7920696E7365727465642E0D7B
:10FCA4000A00573A205772697465206D6963726F50
:10FCB40070686F6E65203D3E20534420636172641A
:10FCC4002061742025642075730D0A00612F412082
:10FCD40064656372656173652F696E6372656173D0
:10FCE40065207265616420616464726573730D0AD2
:10FCF400005375636365737366756C6C7920496E24
:10FD0400697469616C697A65642053442043617243
:10FD1400640D0A0053706F6F6C6564202564206F56
:10FD24007574206F662074686520256420626C6F8A
:10FD3400636B732E0D0A00733A2073706F6F6C201F
:10FD44006D656D6F727920746F2061206373762006
:10FD540066696C650D0A00417564696F20526563BC
:10FD64006F7264696E6720616E6420506C617962A1
:10FD740061636B0D0A004572726F7220496E69747B
:10FD840069616C697A696E672053442043617264C7
:10FD94000D0A0053656C6563743A094368616E67C4
:10FDA400652073657474696E67732E2E2E0D0A00B8
:10FDB400507265737320616E79206B657920746F5E
:10FDC40020636F6E74696E75652E0D0A00426C6F48
:10FDD400636B204C656E67746820526573706F6E38
:10FDE40073653A2025780D0A00434D44302C205287
:10FDF4006573657420526573706F6E73653A202560
:10FE0400780D0A00434D44312C20496E6974205208
:10FE14006573706F6E73653A2025780D0A00507211
:10FE240065737320616E79206B657920746F20731C
:10FE3400746172740D0A00693A20496E69746961CB
:10FE44006C697A6520534420636172640D0A00531F
:10FE5400657373696F6E206C6F6767696E673A20AC
:10FE64004E6F6E650D0A007A3A20436C656172200C
:10FE7400746865207465726D696E616C0D0A004169
:10FE8400434D4420343120526573706F6E73653A6C
:10FE94002025780D0A00434D4420353520526573E2
:10FEA400706F6E73653A2025780D0A00434D442027
:10FEB4003820526573706F6E73653A2025780D0A89
:10FEC400005A3A2052657365742070726F636573CB
:10FED400736F720D0A005265636F7264696E6720F6
:10FEE400737461727465640D0A00446576656C6FA1
:10FEF400706D656E7420426F6172640D0A00534424
:10FF0400206361726420616464726573733A2020B3
:10FF14000053656C6563743A094C6F6767696E6773
:10FF24000D0A004C6162203130207465726D696E77
:10FF3400616C0D0A00556E6B6E6F776E206B657980
:10FF44002025630D0A00446F6E65207265636F722D
:10FF540064696E670D0A0020202020416464726584
:10FF640073733A202020200053656C6563743A094A
:10FF74004170706C790D0A005265616420626C6F87
:10FF8400636B3A200D0A00577269746520626C6FC6
:10FF9400636B3A0D0A003F3A2068656C70206D650A
:10FFA4006E750D0A004E4F542062616E616E61736E
:10FFB4000D0A004465637265617365642000496ECF
:10FFC4006372656173656420006F3A096F6B0D0A93
:10FFD400006F3A206B0D0A0025303278200025642A
:10FFE4000D0A000D0A3E200025303478000D0A0A5F
:0CFFF400002563002578002E003A000074
:020000040020DA
:08000000FFFFFFFFFFFFFFFF00
:020000040030CA
:0E000000FF281F3CFFBF85FF0FC00FE00F4021
:00000001FF
